{
  "_format": "hh-sol-artifact-1",
  "contractName": "Domains",
  "sourceName": "contracts/Domains.sol",
  "abi": [
    {
      "inputs": [],
      "stateMutability": "nonpayable",
      "type": "constructor"
    },
    {
      "inputs": [
        {
          "internalType": "string",
          "name": "",
          "type": "string"
        }
      ],
      "name": "domains",
      "outputs": [
        {
          "internalType": "address",
          "name": "",
          "type": "address"
        }
      ],
      "stateMutability": "view",
      "type": "function"
    },
    {
      "inputs": [
        {
          "internalType": "string",
          "name": "name",
          "type": "string"
        }
      ],
      "name": "getAddress",
      "outputs": [
        {
          "internalType": "address",
          "name": "",
          "type": "address"
        }
      ],
      "stateMutability": "view",
      "type": "function"
    },
    {
      "inputs": [
        {
          "internalType": "string",
          "name": "name",
          "type": "string"
        }
      ],
      "name": "getRecords",
      "outputs": [
        {
          "internalType": "string",
          "name": "",
          "type": "string"
        }
      ],
      "stateMutability": "view",
      "type": "function"
    },
    {
      "inputs": [
        {
          "internalType": "string",
          "name": "",
          "type": "string"
        }
      ],
      "name": "records",
      "outputs": [
        {
          "internalType": "string",
          "name": "",
          "type": "string"
        }
      ],
      "stateMutability": "view",
      "type": "function"
    },
    {
      "inputs": [
        {
          "internalType": "string",
          "name": "name",
          "type": "string"
        }
      ],
      "name": "register",
      "outputs": [],
      "stateMutability": "nonpayable",
      "type": "function"
    },
    {
      "inputs": [
        {
          "internalType": "string",
          "name": "name",
          "type": "string"
        },
        {
          "internalType": "string",
          "name": "record",
          "type": "string"
        }
      ],
      "name": "setRecord",
      "outputs": [],
      "stateMutability": "nonpayable",
      "type": "function"
    }
  ],
  "bytecode": "0x60806040523480156200001157600080fd5b506200005d6040518060400160405280601b81526020017f54686973206973206d7920446f6d61696e7320436f6e747261637400000000008152506200006360201b620005241760201c565b620001f7565b62000103816040516024016200007a9190620001d3565b6040516020818303038152906040527f41304fac000000000000000000000000000000000000000000000000000000007bffffffffffffffffffffffffffffffffffffffffffffffffffffffff19166020820180517bffffffffffffffffffffffffffffffffffffffffffffffffffffffff83818316178352505050506200010660201b60201c565b50565b60008151905060006a636f6e736f6c652e6c6f679050602083016000808483855afa5050505050565b600081519050919050565b600082825260208201905092915050565b60005b838110156200016b5780820151818401526020810190506200014e565b838111156200017b576000848401525b50505050565b6000601f19601f8301169050919050565b60006200019f826200012f565b620001ab81856200013a565b9350620001bd8185602086016200014b565b620001c88162000181565b840191505092915050565b60006020820190508181036000830152620001ef818462000192565b905092915050565b610c0c80620002076000396000f3fe608060405234801561001057600080fd5b50600436106100625760003560e01c80632644923514610067578063541e771d1461009757806386e80b71146100c7578063bf40fac1146100f7578063c1880a9814610127578063f2c298be14610143575b600080fd5b610081600480360381019061007c919061087f565b61015f565b60405161008e9190610909565b60405180910390f35b6100b160048036038101906100ac919061087f565b6101a8565b6040516100be91906109ac565b60405180910390f35b6100e160048036038101906100dc9190610a2e565b61025e565b6040516100ee91906109ac565b60405180910390f35b610111600480360381019061010c9190610a2e565b610311565b60405161011e9190610909565b60405180910390f35b610141600480360381019061013c9190610a7b565b61035b565b005b61015d60048036038101906101589190610a2e565b610409565b005b6000818051602081018201805184825260208301602085012081835280955050505050506000915054906101000a900473ffffffffffffffffffffffffffffffffffffffff1681565b60018180516020810182018051848252602083016020850120818352809550505050505060009150905080546101dd90610b2b565b80601f016020809104026020016040519081016040528092919081815260200182805461020990610b2b565b80156102565780601f1061022b57610100808354040283529160200191610256565b820191906000526020600020905b81548152906001019060200180831161023957829003601f168201915b505050505081565b606060018383604051610272929190610b8d565b9081526020016040518091039020805461028b90610b2b565b80601f01602080910402602001604051908101604052809291908181526020018280546102b790610b2b565b80156103045780601f106102d957610100808354040283529160200191610304565b820191906000526020600020905b8154815290600101906020018083116102e757829003601f168201915b5050505050905092915050565b6000808383604051610324929190610b8d565b908152602001604051809103902060009054906101000a900473ffffffffffffffffffffffffffffffffffffffff16905092915050565b3373ffffffffffffffffffffffffffffffffffffffff1660008585604051610384929190610b8d565b908152602001604051809103902060009054906101000a900473ffffffffffffffffffffffffffffffffffffffff1673ffffffffffffffffffffffffffffffffffffffff16146103d357600080fd5b8181600186866040516103e7929190610b8d565b90815260200160405180910390209190610402929190610682565b5050505050565b600073ffffffffffffffffffffffffffffffffffffffff1660008383604051610433929190610b8d565b908152602001604051809103902060009054906101000a900473ffffffffffffffffffffffffffffffffffffffff1673ffffffffffffffffffffffffffffffffffffffff161461048257600080fd5b3360008383604051610495929190610b8d565b908152602001604051809103902060006101000a81548173ffffffffffffffffffffffffffffffffffffffff021916908373ffffffffffffffffffffffffffffffffffffffff1602179055506105206040518060400160405280601a81526020017f2573206861732072656769737465726564206120646f6d61696e000000000000815250336105bd565b5050565b6105ba8160405160240161053891906109ac565b6040516020818303038152906040527f41304fac000000000000000000000000000000000000000000000000000000007bffffffffffffffffffffffffffffffffffffffffffffffffffffffff19166020820180517bffffffffffffffffffffffffffffffffffffffffffffffffffffffff8381831617835250505050610659565b50565b61065582826040516024016105d3929190610ba6565b6040516020818303038152906040527f319af333000000000000000000000000000000000000000000000000000000007bffffffffffffffffffffffffffffffffffffffffffffffffffffffff19166020820180517bffffffffffffffffffffffffffffffffffffffffffffffffffffffff8381831617835250505050610659565b5050565b60008151905060006a636f6e736f6c652e6c6f679050602083016000808483855afa5050505050565b82805461068e90610b2b565b90600052602060002090601f0160209004810192826106b057600085556106f7565b82601f106106c957803560ff19168380011785556106f7565b828001600101855582156106f7579182015b828111156106f65782358255916020019190600101906106db565b5b5090506107049190610708565b5090565b5b80821115610721576000816000905550600101610709565b5090565b6000604051905090565b600080fd5b600080fd5b600080fd5b600080fd5b6000601f19601f8301169050919050565b7f4e487b7100000000000000000000000000000000000000000000000000000000600052604160045260246000fd5b61078c82610743565b810181811067ffffffffffffffff821117156107ab576107aa610754565b5b80604052505050565b60006107be610725565b90506107ca8282610783565b919050565b600067ffffffffffffffff8211156107ea576107e9610754565b5b6107f382610743565b9050602081019050919050565b82818337600083830152505050565b600061082261081d846107cf565b6107b4565b90508281526020810184848401111561083e5761083d61073e565b5b610849848285610800565b509392505050565b600082601f83011261086657610865610739565b5b813561087684826020860161080f565b91505092915050565b6000602082840312156108955761089461072f565b5b600082013567ffffffffffffffff8111156108b3576108b2610734565b5b6108bf84828501610851565b91505092915050565b600073ffffffffffffffffffffffffffffffffffffffff82169050919050565b60006108f3826108c8565b9050919050565b610903816108e8565b82525050565b600060208201905061091e60008301846108fa565b92915050565b600081519050919050565b600082825260208201905092915050565b60005b8381101561095e578082015181840152602081019050610943565b8381111561096d576000848401525b50505050565b600061097e82610924565b610988818561092f565b9350610998818560208601610940565b6109a181610743565b840191505092915050565b600060208201905081810360008301526109c68184610973565b905092915050565b600080fd5b600080fd5b60008083601f8401126109ee576109ed610739565b5b8235905067ffffffffffffffff811115610a0b57610a0a6109ce565b5b602083019150836001820283011115610a2757610a266109d3565b5b9250929050565b60008060208385031215610a4557610a4461072f565b5b600083013567ffffffffffffffff811115610a6357610a62610734565b5b610a6f858286016109d8565b92509250509250929050565b60008060008060408587031215610a9557610a9461072f565b5b600085013567ffffffffffffffff811115610ab357610ab2610734565b5b610abf878288016109d8565b9450945050602085013567ffffffffffffffff811115610ae257610ae1610734565b5b610aee878288016109d8565b925092505092959194509250565b7f4e487b7100000000000000000000000000000000000000000000000000000000600052602260045260246000fd5b60006002820490506001821680610b4357607f821691505b60208210811415610b5757610b56610afc565b5b50919050565b600081905092915050565b6000610b748385610b5d565b9350610b81838584610800565b82840190509392505050565b6000610b9a828486610b68565b91508190509392505050565b60006040820190508181036000830152610bc08185610973565b9050610bcf60208301846108fa565b939250505056fea2646970667358221220a246bb65a592b6c0192b25a359f1773c14131fce6eb1b980053e0124441bccb064736f6c634300080a0033",
  "linkReferences": {},
  "deployedLinkReferences": {}
}